S00B00004C43442E7372656346
S11300000C942A000C9447000C9447000C9447006D
S11300100C9447000C9447000C9447000C94470040
S11300200C9447000C9447000C9447000C94470030
S11300300C9447000C944C020C9447000C94470019
S11300400C9447000C9447000C9447000C94470010
S11300500C94470011241FBECFE5D8E0DEBFCDBF0E
S113006010E0A0E6B0E0E8E2F5E002C005900D92F1
S1130070A03CB107D9F720E0A0ECB0E001C01D928C
S1130080A33CB207E1F70E94E0010C9492020C94A5
S1130090000095ED9A95F1F70000882314F4AE9AC8
S11300A001C0AE9886FF02C0AD9A01C0AD9885FF2D
S11300B002C0AC9A01C0AC9884FF02C0AB9A01C0E4
S11300C0AB98AA9AAA9883FF02C0AE9A01C0AE98D0
S11300D082FF02C0AD9A01C0AD9881FF02C0AC9A04
S11300E001C0AC9880FF02C0AB9A01C0AB98AA9A39
S11300F0AA980895A89881E00E9449008FE39FE19F
S11301000197F1F700C000000895CF93DF93EC014D
S1130110A89A8881882331F021960E944900899108
S11301208111FBCFDF91CF910895A89A0E944900D5
S11301300895A89880680E9449000895A09AA29AF8
S1130140A69AA59AA49AA39AA898AA988FE59AEE33
S11301500197F1F700C00000AB9AAC9AAD98AE9845
S1130160AA9AAA988FE19EE40197F1F700C00000D3
S1130170AA9AAA988FE193E00197F1F700C00000D2
S1130180AA9AAA988FE193E00197F1F700C00000C2
S1130190AB98AC9AAD98AE98AA9AAA9888E20E94B5
S11301A049008CE00E9449000E947A0086E00E9487
S11301B049000895CF93DF9300D000D000D0CDB78D
S11301C0DEB74AE0BE016F5F7F4F0E945D02CE0141
S11301D001960E94850026960FB6F894DEBF0FBEE6
S11301E0CDBFDF91CF910895CF92DF92EF92FF922E
S11301F00F931F93CF93DF93CDB7DEB7FE013B96EA
S1130200019111916F01F80180818823C1F1853238
S113021061F57801FFEFEF1AFF0AF8018181843656
S113022019F0833751F01EC0F60180819181F2E00C
S1130230CF0ED11C0E94DA001BC0F6010190F081A0
S1130240E02D22E0C20ED11C8081882389F08F0129
S11302500F5F1F4F0E949500F80181918F0181115A
S1130260F9CF06C00E94950003C00E949500780152
S113027087010F5F1F4FF70181818111C8CFDF9183
S1130280CF911F910F91FF90EF90DF90CF90089541
S113029087E689B910BC88ED8AB986E880BD0895DF
S11302A081B3806381BB81B38C6C81BB82B3837067
S11302B082BB8FB5826A8FBD8EB589618EBD80E8A1
S11302C09CE097BD86BD0895CF93DF93C82FD92FA7
S11302D00E947A0080E00E94990020EB30E03F9376
S11302E02F930E94F40080E40E949900DF93CF933F
S11302F00E94F4002FEF80E792E02150804090406C
S1130300E1F700C000000F900F900F900F90DF9165
S1130310CF91089580EA90E00E94640182B38464DE
S113032082BB82B3877782BB80E496E09BBD8ABDA3
S113033088EB9BE099BD88BDD99ADD98089580E645
S113034090E00E94640182B3886882BB82B38B7B95
S113035082BB80E496E09BBD8ABD88EB9BE099BD9F
S113036088BD089580E890E00E946401929A939871
S113037082B38F7382BB88EB9BE099BD88BD1BBCA5
S11303801ABC089580E790E00E946401969A9798B9
S113039082B3837F82BB19BC18BC80E496E09BBD0A
S11303A08ABD089580E990E00E94640182B383735A
S11303B082BB1BBC1ABC19BC18BCD998DD9A089521
S11303C08AB38FEF8ABB0E9448010E949E000E945C
S11303D05001789480E990E00E94640111E7C1E043
S11303E0D6E6D89A8091C200863629F4C093C1001B
S11303F00E948A01F6CF8C36A9F48091C10088232B
S113040081F3DB98DC9A0E94B2012FEF8FE493EC26
S1130410215080409040E1F700C00000D093C2001A
S1130420DC98DFCF8237A9F48091C1008823C9F218
S1130430DC98DB9A0E94C2012FEF8FE493EC2150E9
S113044080409040E1F700C00000D093C200DB98E8
S1130450C8CF813739F4C093C0000E94D2011092F2
S1130460C100BFCF823609F0BCCF8091C000882381
S113047009F4B7CFDD98DA9A0E949F012FEF8FE439
S113048093EC215080409040E1F700C000001093AD
S1130490C200DA98DD9AA5CF1F920F920FB60F9281
S11304A011248F93DF9A8CB18093C200DF988F91CF
S11304B00F900FBE0F901F901895BB274A3031F450
S11304C0992322F4BDE2909581959F4F0C94690283
S11304D0BB27FB015527AA27880F991FAA1FA4171A
S11304E010F0A41B83955051B9F7A05DAA3308F00E
S11304F0A95DA193009779F7B111B1931192CB0142
S11305000C948202DC01FC01672F71917723E1F7DF
S1130510329704C07C916D9370836291AE17BF07CC
S10B0520C8F30895F894FFCF1D
S11305282D2D2D3E3E4241434B3C3C2D2D2D0000AC
S11305382D2D2D2D3E3E52494748543C3C2D2D2D02
S11305482D2D2D2D3E3E4C4546543C3C2D2D2D2D18
S11305582D2D2D2D3E3E53544F503C3C2D2D2D2DED
S11305682D2D2D2D3E3E53544152543C3C2D2D2DC2
S113057853617920536D74682E2E2E2E2E2E000072
S90300A05C
